{
	"data": {
		"bytecode": {
			"linkReferences": {},
			"object": "608060405234801561000f575f80fd5b506108918061001d5f395ff3fe608060405234801561000f575f80fd5b506004361061003f575f3560e01c80632ebce631146100435780638bab8dd514610074578063bc832d4e146100a4575b5f80fd5b61005d6004803603810190610058919061026a565b6100c0565b60405161006b92919061032e565b60405180910390f35b61008e60048036038101906100899190610488565b610175565b60405161009b91906104cf565b60405180910390f35b6100be60048036038101906100b991906104e8565b6101a2565b005b600181815481106100cf575f80fd5b905f5260205f2090600202015f91509050805f0154908060010180546100f49061056f565b80601f01602080910402602001604051908101604052809291908181526020018280546101209061056f565b801561016b5780601f106101425761010080835404028352916020019161016b565b820191905f5260205f20905b81548152906001019060200180831161014e57829003601f168201915b5050505050905082565b6002818051602081018201805184825260208301602085012081835280955050505050505f915090505481565b6001604051806040016040528084815260200183815250908060018154018082558091505060019003905f5260205f2090600202015f909190919091505f820151815f015560208201518160010190816101fc919061073c565b505050816002826040516102109190610845565b9081526020016040518091039020819055505050565b5f604051905090565b5f80fd5b5f80fd5b5f819050919050565b61024981610237565b8114610253575f80fd5b50565b5f8135905061026481610240565b92915050565b5f6020828403121561027f5761027e61022f565b5b5f61028c84828501610256565b91505092915050565b61029e81610237565b82525050565b5f81519050919050565b5f82825260208201905092915050565b5f5b838110156102db5780820151818401526020810190506102c0565b5f8484015250505050565b5f601f19601f8301169050919050565b5f610300826102a4565b61030a81856102ae565b935061031a8185602086016102be565b610323816102e6565b840191505092915050565b5f6040820190506103415f830185610295565b818103602083015261035381846102f6565b90509392505050565b5f80fd5b5f80fd5b7f4e487b71000000000000000000000000000000000000000000000000000000005f52604160045260245ffd5b61039a826102e6565b810181811067ffffffffffffffff821117156103b9576103b8610364565b5b80604052505050565b5f6103cb610226565b90506103d78282610391565b919050565b5f67ffffffffffffffff8211156103f6576103f5610364565b5b6103ff826102e6565b9050602081019050919050565b828183375f83830152505050565b5f61042c610427846103dc565b6103c2565b90508281526020810184848401111561044857610447610360565b5b61045384828561040c565b509392505050565b5f82601f83011261046f5761046e61035c565b5b813561047f84826020860161041a565b91505092915050565b5f6020828403121561049d5761049c61022f565b5b5f82013567ffffffffffffffff8111156104ba576104b9610233565b5b6104c68482850161045b565b91505092915050565b5f6020820190506104e25f830184610295565b92915050565b5f80604083850312156104fe576104fd61022f565b5b5f61050b85828601610256565b925050602083013567ffffffffffffffff81111561052c5761052b610233565b5b6105388582860161045b565b9150509250929050565b7f4e487b71000000000000000000000000000000000000000000000000000000005f52602260045260245ffd5b5f600282049050600182168061058657607f821691505b60208210810361059957610598610542565b5b50919050565b5f819050815f5260205f209050919050565b5f6020601f8301049050919050565b5f82821b905092915050565b5f600883026105fb7fffffffffffffffffffffffffffffffffffffffffffffffffffffffffffffffff826105c0565b61060586836105c0565b95508019841693508086168417925050509392505050565b5f819050919050565b5f61064061063b61063684610237565b61061d565b610237565b9050919050565b5f819050919050565b61065983610626565b61066d61066582610647565b8484546105cc565b825550505050565b5f90565b610681610675565b61068c818484610650565b505050565b5b818110156106af576106a45f82610679565b600181019050610692565b5050565b601f8211156106f4576106c58161059f565b6106ce846105b1565b810160208510156106dd578190505b6106f16106e9856105b1565b830182610691565b50505b505050565b5f82821c905092915050565b5f6107145f19846008026106f9565b1980831691505092915050565b5f61072c8383610705565b9150826002028217905092915050565b610745826102a4565b67ffffffffffffffff81111561075e5761075d610364565b5b610768825461056f565b6107738282856106b3565b5f60209050601f8311600181146107a4575f8415610792578287015190505b61079c8582610721565b865550610803565b601f1984166107b28661059f565b5f5b828110156107d9578489015182556001820191506020850194506020810190506107b4565b868310156107f657848901516107f2601f891682610705565b8355505b6001600288020188555050505b505050505050565b5f81905092915050565b5f61081f826102a4565b610829818561080b565b93506108398185602086016102be565b80840191505092915050565b5f6108508284610815565b91508190509291505056fea264697066735822122019a067afa70f9308010c475d21b054fad908feff98743f22048435cc4929c90c64736f6c63430008180033",
			"opcodes": "PUSH1 0x80 PUSH1 0x40 MSTORE CALLVALUE DUP1 ISZERO PUSH2 0xF JUMPI PUSH0 DUP1 REVERT JUMPDEST POP PUSH2 0x891 DUP1 PUSH2 0x1D PUSH0 CODECOPY PUSH0 RETURN INVALID PUSH1 0x80 PUSH1 0x40 MSTORE CALLVALUE DUP1 ISZERO PUSH2 0xF JUMPI PUSH0 DUP1 REVERT JUMPDEST POP PUSH1 0x4 CALLDATASIZE LT PUSH2 0x3F JUMPI PUSH0 CALLDATALOAD PUSH1 0xE0 SHR DUP1 PUSH4 0x2EBCE631 EQ PUSH2 0x43 JUMPI DUP1 PUSH4 0x8BAB8DD5 EQ PUSH2 0x74 JUMPI DUP1 PUSH4 0xBC832D4E EQ PUSH2 0xA4 JUMPI JUMPDEST PUSH0 DUP1 REVERT JUMPDEST PUSH2 0x5D PUSH1 0x4 DUP1 CALLDATASIZE SUB DUP2 ADD SWAP1 PUSH2 0x58 SWAP2 SWAP1 PUSH2 0x26A JUMP JUMPDEST PUSH2 0xC0 JUMP JUMPDEST PUSH1 0x40 MLOAD PUSH2 0x6B SWAP3 SWAP2 SWAP1 PUSH2 0x32E JUMP JUMPDEST PUSH1 0x40 MLOAD DUP1 SWAP2 SUB SWAP1 RETURN JUMPDEST PUSH2 0x8E PUSH1 0x4 DUP1 CALLDATASIZE SUB DUP2 ADD SWAP1 PUSH2 0x89 SWAP2 SWAP1 PUSH2 0x488 JUMP JUMPDEST PUSH2 0x175 JUMP JUMPDEST PUSH1 0x40 MLOAD PUSH2 0x9B SWAP2 SWAP1 PUSH2 0x4CF JUMP JUMPDEST PUSH1 0x40 MLOAD DUP1 SWAP2 SUB SWAP1 RETURN JUMPDEST PUSH2 0xBE PUSH1 0x4 DUP1 CALLDATASIZE SUB DUP2 ADD SWAP1 PUSH2 0xB9 SWAP2 SWAP1 PUSH2 0x4E8 JUMP JUMPDEST PUSH2 0x1A2 JUMP JUMPDEST STOP JUMPDEST PUSH1 0x1 DUP2 DUP2 SLOAD DUP2 LT PUSH2 0xCF JUMPI PUSH0 DUP1 REVERT JUMPDEST SWAP1 PUSH0 MSTORE PUSH1 0x20 PUSH0 KECCAK256 SWAP1 PUSH1 0x2 MUL ADD PUSH0 SWAP2 POP SWAP1 POP DUP1 PUSH0 ADD SLOAD SWAP1 DUP1 PUSH1 0x1 ADD DUP1 SLOAD PUSH2 0xF4 SWAP1 PUSH2 0x56F JUMP JUMPDEST DUP1 PUSH1 0x1F ADD PUSH1 0x20 DUP1 SWAP2 DIV MUL PUSH1 0x20 ADD PUSH1 0x40 MLOAD SWAP1 DUP2 ADD PUSH1 0x40 MSTORE DUP1 SWAP3 SWAP2 SWAP1 DUP2 DUP2 MSTORE PUSH1 0x20 ADD DUP3 DUP1 SLOAD PUSH2 0x120 SWAP1 PUSH2 0x56F JUMP JUMPDEST DUP1 ISZERO PUSH2 0x16B JUMPI DUP1 PUSH1 0x1F LT PUSH2 0x142 JUMPI PUSH2 0x100 DUP1 DUP4 SLOAD DIV MUL DUP4 MSTORE SWAP2 PUSH1 0x20 ADD SWAP2 PUSH2 0x16B JUMP JUMPDEST DUP3 ADD SWAP2 SWAP1 PUSH0 MSTORE PUSH1 0x20 PUSH0 KECCAK256 SWAP1 JUMPDEST DUP2 SLOAD DUP2 MSTORE SWAP1 PUSH1 0x1 ADD SWAP1 PUSH1 0x20 ADD DUP1 DUP4 GT PUSH2 0x14E JUMPI DUP3 SWAP1 SUB PUSH1 0x1F AND DUP3 ADD SWAP2 JUMPDEST POP POP POP POP POP SWAP1 POP DUP3 JUMP JUMPDEST PUSH1 0x2 DUP2 DUP1 MLOAD PUSH1 0x20 DUP2 ADD DUP3 ADD DUP1 MLOAD DUP5 DUP3 MSTORE PUSH1 0x20 DUP4 ADD PUSH1 0x20 DUP6 ADD KECCAK256 DUP2 DUP4 MSTORE DUP1 SWAP6 POP POP POP POP POP POP PUSH0 SWAP2 POP SWAP1 POP SLOAD DUP2 JUMP JUMPDEST PUSH1 0x1 PUSH1 0x40 MLOAD DUP1 PUSH1 0x40 ADD PUSH1 0x40 MSTORE DUP1 DUP5 DUP2 MSTORE PUSH1 0x20 ADD DUP4 DUP2 MSTORE POP SWAP1 DUP1 PUSH1 0x1 DUP2 SLOAD ADD DUP1 DUP3 SSTORE DUP1 SWAP2 POP POP PUSH1 0x1 SWAP1 SUB SWAP1 PUSH0 MSTORE PUSH1 0x20 PUSH0 KECCAK256 SWAP1 PUSH1 0x2 MUL ADD PUSH0 SWAP1 SWAP2 SWAP1 SWAP2 SWAP1 SWAP2 POP PUSH0 DUP3 ADD MLOAD DUP2 PUSH0 ADD SSTORE PUSH1 0x20 DUP3 ADD MLOAD DUP2 PUSH1 0x1 ADD SWAP1 DUP2 PUSH2 0x1FC SWAP2 SWAP1 PUSH2 0x73C JUMP JUMPDEST POP POP POP DUP2 PUSH1 0x2 DUP3 PUSH1 0x40 MLOAD PUSH2 0x210 SWAP2 SWAP1 PUSH2 0x845 JUMP JUMPDEST SWAP1 DUP2 MSTORE PUSH1 0x20 ADD PUSH1 0x40 MLOAD DUP1 SWAP2 SUB SWAP1 KECCAK256 DUP2 SWAP1 SSTORE POP POP POP JUMP JUMPDEST PUSH0 PUSH1 0x40 MLOAD SWAP1 POP SWAP1 JUMP JUMPDEST PUSH0 DUP1 REVERT JUMPDEST PUSH0 DUP1 REVERT JUMPDEST PUSH0 DUP2 SWAP1 POP SWAP2 SWAP1 POP JUMP JUMPDEST PUSH2 0x249 DUP2 PUSH2 0x237 JUMP JUMPDEST DUP2 EQ PUSH2 0x253 JUMPI PUSH0 DUP1 REVERT JUMPDEST POP JUMP JUMPDEST PUSH0 DUP2 CALLDATALOAD SWAP1 POP PUSH2 0x264 DUP2 PUSH2 0x240 JUMP JUMPDEST SWAP3 SWAP2 POP POP JUMP JUMPDEST PUSH0 PUSH1 0x20 DUP3 DUP5 SUB SLT ISZERO PUSH2 0x27F JUMPI PUSH2 0x27E PUSH2 0x22F JUMP JUMPDEST JUMPDEST PUSH0 PUSH2 0x28C DUP5 DUP3 DUP6 ADD PUSH2 0x256 JUMP JUMPDEST SWAP2 POP POP SWAP3 SWAP2 POP POP JUMP JUMPDEST PUSH2 0x29E DUP2 PUSH2 0x237 JUMP JUMPDEST DUP3 MSTORE POP POP JUMP JUMPDEST PUSH0 DUP2 MLOAD SWAP1 POP SWAP2 SWAP1 POP JUMP JUMPDEST PUSH0 DUP3 DUP3 MSTORE PUSH1 0x20 DUP3 ADD SWAP1 POP SWAP3 SWAP2 POP POP JUMP JUMPDEST PUSH0 JUMPDEST DUP4 DUP2 LT ISZERO PUSH2 0x2DB JUMPI DUP1 DUP3 ADD MLOAD DUP2 DUP5 ADD MSTORE PUSH1 0x20 DUP2 ADD SWAP1 POP PUSH2 0x2C0 JUMP JUMPDEST PUSH0 DUP5 DUP5 ADD MSTORE POP POP POP POP JUMP JUMPDEST PUSH0 PUSH1 0x1F NOT PUSH1 0x1F DUP4 ADD AND SWAP1 POP SWAP2 SWAP1 POP JUMP JUMPDEST PUSH0 PUSH2 0x300 DUP3 PUSH2 0x2A4 JUMP JUMPDEST PUSH2 0x30A DUP2 DUP6 PUSH2 0x2AE JUMP JUMPDEST SWAP4 POP PUSH2 0x31A DUP2 DUP6 PUSH1 0x20 DUP7 ADD PUSH2 0x2BE JUMP JUMPDEST PUSH2 0x323 DUP2 PUSH2 0x2E6 JUMP JUMPDEST DUP5 ADD SWAP2 POP POP SWAP3 SWAP2 POP POP JUMP JUMPDEST PUSH0 PUSH1 0x40 DUP3 ADD SWAP1 POP PUSH2 0x341 PUSH0 DUP4 ADD DUP6 PUSH2 0x295 JUMP JUMPDEST DUP2 DUP2 SUB PUSH1 0x20 DUP4 ADD MSTORE PUSH2 0x353 DUP2 DUP5 PUSH2 0x2F6 JUMP JUMPDEST SWAP1 POP SWAP4 SWAP3 POP POP POP JUMP JUMPDEST PUSH0 DUP1 REVERT JUMPDEST PUSH0 DUP1 REVERT JUMPDEST PUSH32 0x4E487B7100000000000000000000000000000000000000000000000000000000 PUSH0 MSTORE PUSH1 0x41 PUSH1 0x4 MSTORE PUSH1 0x24 PUSH0 REVERT JUMPDEST PUSH2 0x39A DUP3 PUSH2 0x2E6 JUMP JUMPDEST DUP2 ADD DUP2 DUP2 LT PUSH8 0xFFFFFFFFFFFFFFFF DUP3 GT OR ISZERO PUSH2 0x3B9 JUMPI PUSH2 0x3B8 PUSH2 0x364 JUMP JUMPDEST JUMPDEST DUP1 PUSH1 0x40 MSTORE POP POP POP JUMP JUMPDEST PUSH0 PUSH2 0x3CB PUSH2 0x226 JUMP JUMPDEST SWAP1 POP PUSH2 0x3D7 DUP3 DUP3 PUSH2 0x391 JUMP JUMPDEST SWAP2 SWAP1 POP JUMP JUMPDEST PUSH0 PUSH8 0xFFFFFFFFFFFFFFFF DUP3 GT ISZERO PUSH2 0x3F6 JUMPI PUSH2 0x3F5 PUSH2 0x364 JUMP JUMPDEST JUMPDEST PUSH2 0x3FF DUP3 PUSH2 0x2E6 JUMP JUMPDEST SWAP1 POP PUSH1 0x20 DUP2 ADD SWAP1 POP SWAP2 SWAP1 POP JUMP JUMPDEST DUP3 DUP2 DUP4 CALLDATACOPY PUSH0 DUP4 DUP4 ADD MSTORE POP POP POP JUMP JUMPDEST PUSH0 PUSH2 0x42C PUSH2 0x427 DUP5 PUSH2 0x3DC JUMP JUMPDEST PUSH2 0x3C2 JUMP JUMPDEST SWAP1 POP DUP3 DUP2 MSTORE PUSH1 0x20 DUP2 ADD DUP5 DUP5 DUP5 ADD GT ISZERO PUSH2 0x448 JUMPI PUSH2 0x447 PUSH2 0x360 JUMP JUMPDEST JUMPDEST PUSH2 0x453 DUP5 DUP3 DUP6 PUSH2 0x40C JUMP JUMPDEST POP SWAP4 SWAP3 POP POP POP JUMP JUMPDEST PUSH0 DUP3 PUSH1 0x1F DUP4 ADD SLT PUSH2 0x46F JUMPI PUSH2 0x46E PUSH2 0x35C JUMP JUMPDEST JUMPDEST DUP2 CALLDATALOAD PUSH2 0x47F DUP5 DUP3 PUSH1 0x20 DUP7 ADD PUSH2 0x41A JUMP JUMPDEST SWAP2 POP POP SWAP3 SWAP2 POP POP JUMP JUMPDEST PUSH0 PUSH1 0x20 DUP3 DUP5 SUB SLT ISZERO PUSH2 0x49D JUMPI PUSH2 0x49C PUSH2 0x22F JUMP JUMPDEST JUMPDEST PUSH0 DUP3 ADD CALLDATALOAD PUSH8 0xFFFFFFFFFFFFFFFF DUP2 GT ISZERO PUSH2 0x4BA JUMPI PUSH2 0x4B9 PUSH2 0x233 JUMP JUMPDEST JUMPDEST PUSH2 0x4C6 DUP5 DUP3 DUP6 ADD PUSH2 0x45B JUMP JUMPDEST SWAP2 POP POP SWAP3 SWAP2 POP POP JUMP JUMPDEST PUSH0 PUSH1 0x20 DUP3 ADD SWAP1 POP PUSH2 0x4E2 PUSH0 DUP4 ADD DUP5 PUSH2 0x295 JUMP JUMPDEST SWAP3 SWAP2 POP POP JUMP JUMPDEST PUSH0 DUP1 PUSH1 0x40 DUP4 DUP6 SUB SLT ISZERO PUSH2 0x4FE JUMPI PUSH2 0x4FD PUSH2 0x22F JUMP JUMPDEST JUMPDEST PUSH0 PUSH2 0x50B DUP6 DUP3 DUP7 ADD PUSH2 0x256 JUMP JUMPDEST SWAP3 POP POP PUSH1 0x20 DUP4 ADD CALLDATALOAD PUSH8 0xFFFFFFFFFFFFFFFF DUP2 GT ISZERO PUSH2 0x52C JUMPI PUSH2 0x52B PUSH2 0x233 JUMP JUMPDEST JUMPDEST PUSH2 0x538 DUP6 DUP3 DUP7 ADD PUSH2 0x45B JUMP JUMPDEST SWAP2 POP POP SWAP3 POP SWAP3 SWAP1 POP JUMP JUMPDEST PUSH32 0x4E487B7100000000000000000000000000000000000000000000000000000000 PUSH0 MSTORE PUSH1 0x22 PUSH1 0x4 MSTORE PUSH1 0x24 PUSH0 REVERT JUMPDEST PUSH0 PUSH1 0x2 DUP3 DIV SWAP1 POP PUSH1 0x1 DUP3 AND DUP1 PUSH2 0x586 JUMPI PUSH1 0x7F DUP3 AND SWAP2 POP JUMPDEST PUSH1 0x20 DUP3 LT DUP2 SUB PUSH2 0x599 JUMPI PUSH2 0x598 PUSH2 0x542 JUMP JUMPDEST JUMPDEST POP SWAP2 SWAP1 POP JUMP JUMPDEST PUSH0 DUP2 SWAP1 POP DUP2 PUSH0 MSTORE PUSH1 0x20 PUSH0 KECCAK256 SWAP1 POP SWAP2 SWAP1 POP JUMP JUMPDEST PUSH0 PUSH1 0x20 PUSH1 0x1F DUP4 ADD DIV SWAP1 POP SWAP2 SWAP1 POP JUMP JUMPDEST PUSH0 DUP3 DUP3 SHL SWAP1 POP SWAP3 SWAP2 POP POP JUMP JUMPDEST PUSH0 PUSH1 0x8 DUP4 MUL PUSH2 0x5FB PUSH32 0xFFFFFFFFFFFFFFFFFFFFFFFFFFFFFFFFFFFFFFFFFFFFFFFFFFFFFFFFFFFFFFFF DUP3 PUSH2 0x5C0 JUMP JUMPDEST PUSH2 0x605 DUP7 DUP4 PUSH2 0x5C0 JUMP JUMPDEST SWAP6 POP DUP1 NOT DUP5 AND SWAP4 POP DUP1 DUP7 AND DUP5 OR SWAP3 POP POP POP SWAP4 SWAP3 POP POP POP JUMP JUMPDEST PUSH0 DUP2 SWAP1 POP SWAP2 SWAP1 POP JUMP JUMPDEST PUSH0 PUSH2 0x640 PUSH2 0x63B PUSH2 0x636 DUP5 PUSH2 0x237 JUMP JUMPDEST PUSH2 0x61D JUMP JUMPDEST PUSH2 0x237 JUMP JUMPDEST SWAP1 POP SWAP2 SWAP1 POP JUMP JUMPDEST PUSH0 DUP2 SWAP1 POP SWAP2 SWAP1 POP JUMP JUMPDEST PUSH2 0x659 DUP4 PUSH2 0x626 JUMP JUMPDEST PUSH2 0x66D PUSH2 0x665 DUP3 PUSH2 0x647 JUMP JUMPDEST DUP5 DUP5 SLOAD PUSH2 0x5CC JUMP JUMPDEST DUP3 SSTORE POP POP POP POP JUMP JUMPDEST PUSH0 SWAP1 JUMP JUMPDEST PUSH2 0x681 PUSH2 0x675 JUMP JUMPDEST PUSH2 0x68C DUP2 DUP5 DUP5 PUSH2 0x650 JUMP JUMPDEST POP POP POP JUMP JUMPDEST JUMPDEST DUP2 DUP2 LT ISZERO PUSH2 0x6AF JUMPI PUSH2 0x6A4 PUSH0 DUP3 PUSH2 0x679 JUMP JUMPDEST PUSH1 0x1 DUP2 ADD SWAP1 POP PUSH2 0x692 JUMP JUMPDEST POP POP JUMP JUMPDEST PUSH1 0x1F DUP3 GT ISZERO PUSH2 0x6F4 JUMPI PUSH2 0x6C5 DUP2 PUSH2 0x59F JUMP JUMPDEST PUSH2 0x6CE DUP5 PUSH2 0x5B1 JUMP JUMPDEST DUP2 ADD PUSH1 0x20 DUP6 LT ISZERO PUSH2 0x6DD JUMPI DUP2 SWAP1 POP JUMPDEST PUSH2 0x6F1 PUSH2 0x6E9 DUP6 PUSH2 0x5B1 JUMP JUMPDEST DUP4 ADD DUP3 PUSH2 0x691 JUMP JUMPDEST POP POP JUMPDEST POP POP POP JUMP JUMPDEST PUSH0 DUP3 DUP3 SHR SWAP1 POP SWAP3 SWAP2 POP POP JUMP JUMPDEST PUSH0 PUSH2 0x714 PUSH0 NOT DUP5 PUSH1 0x8 MUL PUSH2 0x6F9 JUMP JUMPDEST NOT DUP1 DUP4 AND SWAP2 POP POP SWAP3 SWAP2 POP POP JUMP JUMPDEST PUSH0 PUSH2 0x72C DUP4 DUP4 PUSH2 0x705 JUMP JUMPDEST SWAP2 POP DUP3 PUSH1 0x2 MUL DUP3 OR SWAP1 POP SWAP3 SWAP2 POP POP JUMP JUMPDEST PUSH2 0x745 DUP3 PUSH2 0x2A4 JUMP JUMPDEST PUSH8 0xFFFFFFFFFFFFFFFF DUP2 GT ISZERO PUSH2 0x75E JUMPI PUSH2 0x75D PUSH2 0x364 JUMP JUMPDEST JUMPDEST PUSH2 0x768 DUP3 SLOAD PUSH2 0x56F JUMP JUMPDEST PUSH2 0x773 DUP3 DUP3 DUP6 PUSH2 0x6B3 JUMP JUMPDEST PUSH0 PUSH1 0x20 SWAP1 POP PUSH1 0x1F DUP4 GT PUSH1 0x1 DUP2 EQ PUSH2 0x7A4 JUMPI PUSH0 DUP5 ISZERO PUSH2 0x792 JUMPI DUP3 DUP8 ADD MLOAD SWAP1 POP JUMPDEST PUSH2 0x79C DUP6 DUP3 PUSH2 0x721 JUMP JUMPDEST DUP7 SSTORE POP PUSH2 0x803 JUMP JUMPDEST PUSH1 0x1F NOT DUP5 AND PUSH2 0x7B2 DUP7 PUSH2 0x59F JUMP JUMPDEST PUSH0 JUMPDEST DUP3 DUP2 LT ISZERO PUSH2 0x7D9 JUMPI DUP5 DUP10 ADD MLOAD DUP3 SSTORE PUSH1 0x1 DUP3 ADD SWAP2 POP PUSH1 0x20 DUP6 ADD SWAP5 POP PUSH1 0x20 DUP2 ADD SWAP1 POP PUSH2 0x7B4 JUMP JUMPDEST DUP7 DUP4 LT ISZERO PUSH2 0x7F6 JUMPI DUP5 DUP10 ADD MLOAD PUSH2 0x7F2 PUSH1 0x1F DUP10 AND DUP3 PUSH2 0x705 JUMP JUMPDEST DUP4 SSTORE POP JUMPDEST PUSH1 0x1 PUSH1 0x2 DUP9 MUL ADD DUP9 SSTORE POP POP POP JUMPDEST POP POP POP POP POP POP JUMP JUMPDEST PUSH0 DUP2 SWAP1 POP SWAP3 SWAP2 POP POP JUMP JUMPDEST PUSH0 PUSH2 0x81F DUP3 PUSH2 0x2A4 JUMP JUMPDEST PUSH2 0x829 DUP2 DUP6 PUSH2 0x80B JUMP JUMPDEST SWAP4 POP PUSH2 0x839 DUP2 DUP6 PUSH1 0x20 DUP7 ADD PUSH2 0x2BE JUMP JUMPDEST DUP1 DUP5 ADD SWAP2 POP POP SWAP3 SWAP2 POP POP JUMP JUMPDEST PUSH0 PUSH2 0x850 DUP3 DUP5 PUSH2 0x815 JUMP JUMPDEST SWAP2 POP DUP2 SWAP1 POP SWAP3 SWAP2 POP POP JUMP INVALID LOG2 PUSH5 0x6970667358 0x22 SLT KECCAK256 NOT LOG0 PUSH8 0xAFA70F9308010C47 TSTORE 0x21 0xB0 SLOAD STATICCALL 0xD9 ADDMOD INVALID SELFDESTRUCT SWAP9 PUSH21 0x3F22048435CC4929C90C64736F6C63430008180033 "
		},
		"gasEstimates": {
			"creation": {
				"codeDepositCost": "438600",
				"executionCost": "472",
				"totalCost": "439072"
			},
			"external": {
				"addPerson(uint256,string)": "infinite",
				"listOfPeople(uint256)": "infinite",
				"nameToFavoriteNumber(string)": "infinite"
			}
		},
		"methodIdentifiers": {
			"addPerson(uint256,string)": "bc832d4e",
			"listOfPeople(uint256)": "2ebce631",
			"nameToFavoriteNumber(string)": "8bab8dd5"
		}
	},
	"abi": [
		{
			"inputs": [
				{
					"internalType": "uint256",
					"name": "_favoriteNumber",
					"type": "uint256"
				},
				{
					"internalType": "string",
					"name": "_name",
					"type": "string"
				}
			],
			"name": "addPerson",
			"outputs": [],
			"stateMutability": "nonpayable",
			"type": "function"
		},
		{
			"inputs": [
				{
					"internalType": "uint256",
					"name": "",
					"type": "uint256"
				}
			],
			"name": "listOfPeople",
			"outputs": [
				{
					"internalType": "uint256",
					"name": "favoriteNumber",
					"type": "uint256"
				},
				{
					"internalType": "string",
					"name": "name",
					"type": "string"
				}
			],
			"stateMutability": "view",
			"type": "function"
		},
		{
			"inputs": [
				{
					"internalType": "string",
					"name": "",
					"type": "string"
				}
			],
			"name": "nameToFavoriteNumber",
			"outputs": [
				{
					"internalType": "uint256",
					"name": "",
					"type": "uint256"
				}
			],
			"stateMutability": "view",
			"type": "function"
		}
	]
}